:020000040800F2
:100000002019002079020008A31C00089B1C00088E
:100010009F1C00087F180008952E000800000000B3
:100020000000000000000000000000002521000882
:100030004F1B000800000000FD1E000811220008F0
:10004000930200089302000893020008930200083C
:10005000930200089302000893020008930200082C
:10006000930200089302000893020008930200081C
:10007000930200089302000893020008930200080C
:1000800093020008930200089302000893020008FC
:10009000492E00089302000893020008930200080A
:1000A00093020008930200089302000893020008DC
:1000B000B524000893020008930200089302000888
:1000C00093020008930200089302000893020008BC
:1000D000930200080D2C0008930200089302000808
:1000E000930200089302000893020008930200089C
:1000F000930200089302000893020008930200088C
:10010000930200089302000893020008930200087B
:10011000930200089302000893020008930200086B
:10012000930200089302000893020008930200085B
:1001300000F002F800F090F80AA090E8000C824469
:100140008344AAF10107DA4501D100F085F8AFF246
:10015000090EBAE80F0013F0010F18BFFB1A43F0A5
:1001600001031847903B0000B03B0000103A24BF49
:1001700078C878C1FAD8520724BF30C830C144BF0C
:1001800004680C607047000000230024002500264E
:10019000103A28BF78C1FBD8520728BF30C148BFEA
:1001A0000B6070476E2900F0AB81702900F0F5827A
:1001B000662903F03085652903F02D85672903F052
:1001C0002A856129AFF3008003681B0A28BF41F02C
:1001D0008001692900F05881642900F05581752952
:1001E00000F052816F2900F08382782900F0C182EB
:1001F000E92900F01D82E42900F01A82F52900F0B7
:100200001782EF2900F08082F82900F0C08203688D
:10021000DB0928BF41F08001632900F0468673297D
:1002200000F04B86E32900F05686F32900F05B8648
:10023000002070471FB500F0A9FE04000020002137
:1002400003F00CF9401C60600020002103F0F0F87E
:10025000E0601FBD10B510BD00F06AFE1146FFF74B
:10026000E9FF02F065FF00F043FF03B4FFF7F2FF80
:1002700003BC00F043FF00000948804709480047DD
:10028000FEE7FEE7FEE7FEE7FEE7FEE7FEE7FEE746
:10029000FEE7FEE704480549054A064B70470000A3
:1002A0001522000831010008200900202019002033
:1002B00020110020201100207CB51D4616460C00A0
:1002C000009001D02044401E074B7B442A466946DB
:1002D0000190304600F02DF905461CB1002069461A
:1002E00000F03AF928467CBD950200004FF000026C
:1002F00000B5134694469646203922BFA0E80C501C
:10030000A0E80C50B1F12001BFF4F7AF090728BFF6
:10031000A0E80C5048BF0CC05DF804EB890028BF72
:1003200040F8042B08BF704748BF20F8022B11F09B
:10033000804F18BF00F8012B704700004FF0013CC0
:1003400050F8042B51F8043B9A4221D1A2EB0C0344
:10035000934313EACC1317D150F8042B51F8043B04
:100360009A4215D1A2EB0C03934313EACC130BD1A1
:1003700050F8042B51F8043B9A4209D1A2EB0C032C
:10038000934313EACC13DBD04FF00000704700BF5B
:10039000D01A01BAB1FA81F101F0180122FA01F084
:1003A000CB40C1F12001DBB2C0B2C01A2CFA01F37C
:1003B000D11A914311EAC311E6D1704770477047D3
:1003C000704770B5044685690068C10601D53026BE
:1003D00000E02026C00707D070BDD4E901213046D7
:1003E0009047206A401C20626D1EF6D570BD70B526
:1003F000044685690078C00707D170BDD4E90121A2
:1004000020209047206A401C20626D1EF6D570BDEA
:1004100009684A0501D540B27047C905FCD500B24C
:10042000704709684A0501D5C0B27047C905FCD5B7
:1004300080B2704770B50C460546012A05D0287871
:10044000800600D5EA69002302E0012305E05B1C79
:10045000934202D2E05C0028F9D1A869E618C01ADC
:10046000A861286A184428622846FFF7AAFF04E01A
:10047000D5E9012114F8010B9047B442F8D328467E
:10048000FFF7B5FF70BD00002DE9F04106460024DE
:1004900010687529314616A510D0FFF7B9FF00285E
:1004A00002DA404213A507E031688A0701D512A598
:1004B00002E0490704D511A5012401E0FFF7B1FFCF
:1004C00000210A2206F1240709E0B0FBF2FCB0FB90
:1004D000F2F302FB1C00303078541846491C002807
:1004E000F3D123462A463046BDE8F04100F06DBA0C
:1004F000000000002D0000002B0000002000000084
:1005000011680268006A530501D508700AE0D30536
:1005100001D5088006E0130603D5C217C1E9000221
:1005200000E008600120704701694A1C02610878F8
:10053000704700B58FB0CDE9013100210591054923
:100540007944CDE903101146684600F031F90FB047
:1005500000BD0000E5FFFFFF0A6802F8010B0A601A
:100560007047D1E900239A4202D2531C0B601070ED
:10057000704700002DE9FF5F15468A460446DFF804
:10058000AC80F8440027D8E900103E46CDE90010C1
:1005900010E03AF816106A4602A800F0A8FC411CC8
:1005A00007D02178890603D5E269391891420DD820
:1005B0000744761C2078800602D5E069B84205DD44
:1005C000AE42E6DB3AF816000028E2D1A069C01B73
:1005D000A0612046FFF7F5FED8E90010CDE9001034
:1005E000002017E03AF818106A4602A800F07FFCD5
:1005F000B0F1FF3F81460BD000250DF1080B05E05F
:10060000D4E901211BF8050090476D1C4D45F7D337
:1006100008F10100B0428046E4DB206A38442062E1
:100620002046FFF7E4FEBDE8FF9F0000963600007D
:100630002DE9F0418046D21D22F007020025D2E9C3
:100640000002F52915A614D0011E72F1000106DA88
:100650000023D0EB030063EB020211A608E0D8F8F8
:1006600000108B0701D50FA602E0490701D50EA6A1
:1006700001251146002408F1240704E000F060F988
:1006800030323A55641C50EA0102F7D12B4632460B
:1006900021464046BDE8F04100F097B90000000057
:1006A0002D0000002B0000002000000030B40021CD
:1006B00000F1240408E002F00705D208303542EAD0
:1006C0004372DB086554491C52EA0305F3D1046800
:1006D000002310A2250708D504F020040C4304D001
:1006E000C46901230CA2641EC46130BC00F06DB962
:1006F00010B5044621461068FFF793FE02462046D7
:10070000BDE810400023D1E7D21D22F00701D1E956
:100710000023CBE70000000030000000F0B40D46DD
:100720000188090502D5214C7C4402E01F4C7C4421
:100730000E34002100F1240608E002F00F07120930
:10074000E75D42EA03721B097754491C52EA03072A
:10075000F3D102780023120704D5702D06D009B119
:10076000022311342246F0BC00F02FB901231034CB
:10077000F8E770B504460D4621461068FFF751FEB4
:10078000024629462046BDE870400023C6E7D21D38
:1007900022F00703D3E90023C0E70368126843F09F
:1007A000200303600823C3610023B7E7F834000087
:1007B0002DE9F05F894604464FF0000ADFF874B176
:1007C000FB44C0F820A02046E1688847002874D088
:1007D000252806D0D4E901219047206A401C2062D8
:1007E000F1E700265F462046E16888472028054655
:1007F00007DB312D05D2781910F8200C08B106431B
:10080000F1E7B00701D526F00406C4F81CA00027C4
:10081000C4F818A02A2D09D0284602F051FB38B39D
:1008200004EB8708303DC8F8185019E059F8041B4C
:10083000204604EB87029161E1688847012F054655
:1008400018D1E069002820DA26F020061DE0D8F84B
:10085000180000EB800005EB40003038C8F81800A5
:100860002046E1688847054602F02AFB0028EED1C1
:10087000012F0AD02E2D08D12046E16888477F1C21
:100880000546022F46F02006C4DBA069002803DAE3
:10089000404246F00106A061F00701D026F01006A4
:1008A0006C2D0BD0682D09D04C2D39D06A2D35D048
:1008B000742D35D07A2D33D016E038E0E1682F461C
:1008C00020468847B842054609D16C2F26D04FF400
:1008D0008060E168064320468847054604E06C2FA7
:1008E0001AD04FF4807006430DB3A5F141001928CA
:1008F00002D8203546F400664A462946204626603E
:100900004E46FFF74FFC80B101280BD0F61D26F0B4
:10091000070000F1080956E74020E4E78020D8E707
:100920000020D6E706F104094DE7284652E7206A81
:10093000BDE8F09F8834000000487047BC080020E4
:1009400030B5B0F10A024FEA900E71F100034EEAA1
:10095000817EB0EB0E0061EB91014FEA101E4EEA72
:10096000017E10EB0E0041EB11114FEA102E4EEA02
:10097000016E10EB0E0041EB11214FEA104E4EEAD2
:10098000014E10EB0E0041EB1141401841F1000106
:100990004FEAD00040EA41704FEAD10110EB8005E8
:1009A0004FEA810444EA907444EB01046D1944EB6E
:1009B0000404521BA3414FF0000348BF0A3200D584
:1009C00030BD401C41F1000130BD2DE9F0470D461E
:1009D00099469246044600F124080168880604D529
:1009E000E06921F01001216000E00120A84201DD52
:1009F000471B00E00027A1697A1902EB0900081AD9
:100A0000A0612078C00602D42046FFF7DAFC002659
:100A100008E0D4E901211AF806009047206A401C3A
:100A2000761C20624E45F4DB2078C0060AD52046AD
:100A3000FFF7C7FC06E0D4E9012130209047206A87
:100A4000401C2062381EA7F10107F4DC07E0D4E95E
:100A5000012118F805009047206A401C2062281EDA
:100A6000A5F10105F3DC2046FFF7C1FC2078000664
:100A700002D50220BDE8F0870120FBE770472DE991
:100A8000FF4F0C461E464FF0FF378BB0D2E90001F6
:100A9000DDF860800A908A46C1F30A5505B93D46E3
:100AA000002108464FF00000BAF1000F00F44000AA
:100AB00005DA00EB80004FF4400101EA50004FEAF4
:100AC0009059B9F1010F00DDB9460A9850EA4A0081
:100AD0000ED044F61050A5F2FF3545432F14B8F15F
:100AE000000F1ED07542291E1EDDC9F100021CE058
:100AF000B8F1010F4FF0000001D0302103E0F243C4
:100B000005E02154401CB042FBDB304600220021AE
:100B100021540B99C1F80880C1E900200FB0BDE84D
:100B2000F08FBD1B6D1CDEE74A4600DA694206A85D
:100B300000F070FA06AB93E8070003AB83E8070008
:100B400050460A9900F0E0FA8DE80700A0F5005041
:100B50001F3800900398002D09DD42F21F014A461C
:100B6000084403A90390684600F03FFD08E0A0F5A3
:100B700000504A461F3803A90390684600F049FD1B
:100B80008DE807000004000C03D04FF0FF3041084F
:100B900000E01046B8F1000F03D000220092154685
:100BA0001EE0751E05D4FFF7CBFE303262556D1E78
:100BB000F9D5B3460122084302D000227F1C04E08D
:100BC0002078302801D100227F1E002A099786D084
:100BD0001DE0112D07DAFFF7B3FE303262556D1CB0
:100BE00050EA0102F5D1084302D00098C8B10EE0E6
:100BF0000021681E05E0235C625C63542254401EA1
:100C0000491C8142F7DBAB46A81B401E099000201F
:100C100004F80B000B98099AC0F80880C0E9002B73
:100C20007CE711264FF0000859E72DE9F04F884680
:100C30000446D21D22F0070191B0D1E90001CDE9AF
:100C40000A0102F029F902460B98C00F01D02D20AD
:100C500007E02068810701D52B2002E0202101EA6E
:100C6000C000032A099001D0072A05DB034641464C
:100C7000204600F08FF90BE12078800601D5E0696D
:100C800000E00620B8F1650F814606D0B8F1660F86
:100C900018D0B8F1670F70D131E00020B9F1110F11
:100CA000009001DB112301E009F101030AAA01A967
:100CB0000CA8FFF7E4FEDDE90C70002609F1010540
:100CC000834647E001204B4600904FF000470AAAB8
:100CD00001A90CA8FFF7D3FEDDE90DB00C995D4624
:100CE000002610B909F101000D18B9EB050003D475
:100CF000C0F1FF3609F10105A5EB09002BE0B9F1C0
:100D0000010F01DA4FF001090020B9F1110F009035
:100D1000484601DD112300E003460AAA01A90CA8F8
:100D2000FFF7ADFEDDE90C704D46002683462078C6
:100D300000070AD4AB4500DA5D4601A8012D04DDA9
:100D4000411911F8011C302907D04F4502DA17F17B
:100D5000040F04DA012082460FE06D1EEEE7002F3B
:100D600002DCED1B3E4403E0781CA84200DD7D1C44
:100D7000B81B00F1010A4FF000472078000703D4A8
:100D8000AA4501DB4FF0FF3A0021B7F1004F0DF10A
:100D900043088DF8431024D002202B23002F01DAC2
:100DA0007F422D230A21021EA0F1010000DC5FB169
:100DB00097FBF1FC97FBF1F201FB1C7C17460CF151
:100DC000300C08F801CDEEE7A8F10100037021888E
:100DD000090501D5452100E06521A0F1010800F8D1
:100DE000011C09980FA9A1EB0807FF1D00B1012004
:100DF000411901EBEA70A1693844081A401EA0614C
:100E00002078C00602D42046FFF7DBFA099828B103
:100E1000D4E901219047206A401C20622078C00656
:100E200022D52046FFF7CDFA1EE0002E04DBB345A5
:100E300002DD01A8805D00E03020D4E90121904767
:100E4000206A401C2062761CAAF101005FEA000AB9
:100E50000AD100F09BF8C0680168405CD4E9012128
:100E60009047206A401C2062281EA5F10105DCDCA9
:100E700007E0D4E9012118F8010B9047206A401CD3
:100E80002062381EA7F10107F3DC2046FFF7AFFA16
:100E9000032011B043E610B5436913B1AFF30080EE
:100EA00001E0FFF7C7FA012010BD127800F124011C
:100EB0000A7000224A700122EDE711684FF0FF32FC
:100EC000E9E710B5436913B1AFF3008001E0FFF724
:100ED00051FB012010BD128800F124018284002200
:100EE000C2840122EDE711684FF0FF32E9E770B5E7
:100EF00016460C46054600F041F8036893F80101D8
:100F0000012806D0FF2C0FD8185D68B101202C7085
:100F100070BDD3F807013246214603F2071303449C
:100F20002846BDE8704018474FF0FF3070BD70474D
:100F30007546FFF701FDAE4605006946534620F0B1
:100F40000700854618B020B5FFF7A4F9BDE820409A
:100F50004FF000064FF000074FF000084FF0000B75
:100F600021F00701AC46ACE8C009ACE8C009ACE828
:100F7000C009ACE8C0098D467047000010B500F00C
:100F800005F8001D10BD00BFD524000000487047C3
:100F9000DC0800202DE9F0411F46044603260168C5
:100FA000072A01F4006004DB08B116A505E016A5C8
:100FB00003E008B115A500E015A521F010002060A0
:100FC000A069C01EA0610FB1401EA0612046FFF7BE
:100FD000F8F94FB1D4E9012138469047206A401C06
:100FE0002062C01C206206E0206AFAE7D4E90121F1
:100FF00015F8010B9047761EF8D22046FFF7F7F957
:10100000BDE8F0814E414E006E616E00494E4600D3
:10101000696E66002DE9F047814616468AB033486E
:1010200078440DC88DE80D0030487844801C03AC2E
:101030000DC884E80D0041F69B300844372190FB31
:10104000F1F290FBF1F5A5F1800501FB12041B3CC8
:1010500002D56442012000E00020DFF890A0804625
:101060000027FA44AAF1BE0A0DE0E00709D0324693
:10107000684607EB47010AEB810100F0CAFA8DE8E8
:10108000070064107F1C002CEFD1184F7F44AC3F49
:1010900018E0E80714D007EB04100DF1180A90E8E7
:1010A0000E008AE80E00C068F04201D1981908903D
:1010B000324606A903A800F0ACFA03AB83E80700A8
:1010C0006D10641C002DE4D132466946B8F1000F62
:1010D00003A802D000F089FA01E000F09AFAC9E909
:1010E0000001C9F808200AB0BDE8F087B82C00005C
:1010F0000446AFF300802046FFF7B7F801491820F7
:10110000ABBEFEE7260002005FEA400C08BF91F08C
:10111000000F4FEA8C234FEAC12243EA51514FEAB4
:101120001C5018BF00F5F0404FEA300018BF41F0E6
:1011300000415FEA6C5C00F02980BCF1FF3F08BF12
:1011400040F080407047130C06BF12044FF0100CA3
:101150004FF0000C130E04BF12020CF1080C130F19
:1011600004BF12010CF1040C930F04BF92000CF1A8
:10117000020CD30F04BF52000CF1010C11464FF0CA
:101180000002A0F11F00A0EB0C00704711F0004F0F
:1011900008BF704731F000413FF4D5AF0B0C06BFDC
:1011A00009044FF0100C4FF0000C0B0E04BF0902A5
:1011B0000CF1080C0B0F04BF09010CF1040C8B0F90
:1011C00004BF89000CF1020CCB0F04BF49000CF1E5
:1011D000010CCCF12003A0EB0C0022FA03F302FA7D
:1011E0000CF241EA030100F10100704720F07F4C4E
:1011F00080EA030023F07F47ACEB070303F57C5341
:1012000000F0004003F1FF032DE980494FEA154B40
:1012100009B44FEA144325EA0B4E24EA03480FF2BF
:10122000042606EB132749083E785FEA320203FBE7
:101230000667C7F5000707FB06F64FEA54374FEA83
:10124000D64606F1020607FB066CCCF1005C4FEABD
:101250001C472CEA074C07FB06F40CFB06F504EBD5
:1012600015464FEA961634BF00204FF000404FEA73
:10127000D13706FB07FC4FEA1C4C0CFB0BF7D21BCB
:1012800003FB0CF761EB07010CFB0EF7B0EB07401B
:1012900072EB17420CFB08F734BFA2EB0742B2EB2C
:1012A000074261EB17414FEA0C444FEA910706FBF6
:1012B00007FC4FEA1C4C0CFB0BF7B0EBC74072EB82
:1012C000573203FB0CF734BFA2EBC742B2EBC74265
:1012D00061EB57310CFB0EF7B0EBC70072EB5772A6
:1012E0000CFB08F734BFA2EBC702B2EBC70261EBFD
:1012F0005771039F4FEA816141EA921104EBCC04DC
:101300004FEAD1374FEA826206FB07FC42EA9012AD
:101310004FEA80604FEA1C4C0CFB0BF7D21B03FB1F
:101320000CF761EB07010CFB0EF7B0EB074072EB1B
:1013300017420CFB08F734BFA2EB0742B2EB07429F
:1013400061EB17414FEA8C554FEA910704EB9C245F
:1013500006FB07FC4FEA1C4C0CFB0BF7B0EBC7403D
:1013600072EB573203FB0CF734BFA2EBC742B2EB70
:10137000C74261EB57310CFB0EF7B0EBC70072EBC5
:1013800057720CFB08F734BFA2EBC702B2EBC702DF
:1013900061EB577115EB4C254FEA816141EA9211DF
:1013A0004FEA82624FEAD13742EA901206FB07FC0D
:1013B00044F100044FEA80604FEA1C4C0CFB0BF731
:1013C000D21B03FB0CF761EB07010CFB0EF7B0EB34
:1013D000074072EB17420CFB08F734BFA2EB074241
:1013E000B2EB074261EB174115EB1C154FEA813157
:1013F00041EA92414FEA823242EA90424FEA80301B
:101400004FEA0C7644F1000448EA03434EEA0B48E5
:101410004FF0000EB2EB080C71EB030724BF6246DD
:1014200039464EEB0E0E4FF0000B00185241494169
:101430004BEB0B0BB2EB080C71EB03077BF1000BD2
:1014400024BF624639464EEB0E0E4FF0000B0018DB
:10145000524149414BEB0B0BB2EB080C71EB03070C
:101460007BF1000B24BF624639464EEB0E0E51EA6B
:10147000020718BF46F0010616EB0E7655F1000282
:1014800054F1000103D5BDE88901BDE80088BDE83D
:101490008901BDE80048B619524141EB0101A3F1B1
:1014A0000103704780807F7E7D7C7B7A79787776B8
:1014B00076757473727171706F6E6E6D6C6C6B6A31
:1014C0006A696868676666656464636362616160CF
:1014D000605F5F5E5E5D5D5C5C5B5B5A5A5959584C
:1014E00058575756565555555454535352525251B6
:1014F000515050504F4F4F4E4E4D4D4D4C4C4C4B0C
:101500004B4B4A4A4A494949484848474747474652
:10151000464645454544444444434343434242428E
:1015200042414141002B26D4770021D01CB54FEA1F
:10153000370703B44FF010004FF010014FF00000D8
:101540000FBCBDE810400BF1010BBBF1010F08BF50
:101550005FEA170722BF12F1010211F101014FF0FA
:10156000004143F1000300F0004043EA00007047EF
:10157000F9D35708DAE746EA064613F1400F4FEA77
:1015800016461FDD13F1200FDFBF16430A46002168
:1015900020335B42C8D0C3F1200746EA064602FA70
:1015A00007F74FEA164646EA0706C3F1200722FA74
:1015B00003F201FA07F721FA03F14FF0000342EAC0
:1015C0000702B1E746EA020646EA06464FEA164631
:1015D00046EA0106BCBF46EA0646360C4FF0000359
:1015E0004FF000024FF000019EE72DE9C0489346FE
:1015F00030B491E8380007C831EA400C48BF34EAFB
:10160000430C03D5FFF7F2FDFFF78CFFF0BCBDE8FC
:1016100000882DE9C048934630B491E8380007C8E7
:1016200010F0804F08BF13F0804F03D100F005F891
:10163000FFF778FFF0BCBDE8008820F07F4780EA24
:10164000030023F07F4C07EB0C03A3F57C5300F061
:101650000040A3F1FE0392F0000F00F0B38095F07C
:10166000000F00F077802DE901494FEA11404FEA61
:10167000144621EA004800FB06FC24EA064708FB62
:1016800006F607FB08F800FB07F718EB06484CEBDB
:10169000164C4FEA124B18EB07484FEA15464CEB35
:1016A000174022EA0B4E0BFB06FC25EA06470EFB11
:1016B00006F607FB0EFE0BFB07F71EEB064E4CEB88
:1016C000164C4FF000061EEB074E4CEB174B18EB79
:1016D0000B0840F1000018EB0E0B58EB000840F12E
:1016E00000008F1A4FF000013CBFC943661B14BFB6
:1016F000B5EB040C00213CBFC943F61B4FEA17446D
:101700004EEA8E0E27EA04454FEA1C4704FB0762A7
:101710002CEA074C05FB07F70CFB05F604FB0CFC59
:1017200016EB074642EB174216EB0C4642EB1C4207
:101730001BEB060658EB0202414146EA9E0601D524
:10174000BDE80189B619524141EB0101A3F1010342
:10175000BDE801894FEA14454FEA114724EA0546DE
:1017600021EA074C05FB07F406FB07F70CFB06F123
:1017700005FB0CFC11EB074144EB17444FEA124701
:1017800011EB0C4144EB1C4422EA074C05FB07F229
:1017900006FB07F70CFB06F605FB0CFC16EB0746F1
:1017A00042EB174216EB0C4642EB1C456A1854F10B
:1017B000000148BF7047B619524141EB0101A3F146
:1017C0000103704795F0000F37D04FEA11424FEAFE
:1017D000144721EA024624EA074C02FB07F106FB04
:1017E00007F70CFB06F402FB0CFC14EB074441EB7F
:1017F00017414FEA154714EB0C4441EB1C4125EA15
:10180000074C02FB07F506FB07F70CFB06F602FB8D
:101810000CFC16EB074645EB174516EB0C4645EB63
:101820001C42121951F1000148BF7047B6195241CC
:1018300041EB0101A3F1010370474FEA14454FEA60
:10184000114724EA054621EA074C05FB07F106FB90
:1018500007F70CFB06F24FF0000605FB0CFC12EB41
:10186000074241EB174112EB0C4251EB1C4148BFC0
:101870007047921841EB0101A3F10103704700BFCB
:10188000FEE70000B1F5007F3AD00FDC202928D018
:1018900006DC01291CD004291DD0082940D11DE0F7
:1018A000402921D0B1F5807F3AD126E0B1F5004F33
:1018B00031D006DCB1F5806F25D0B1F5006F2FD1A6
:1018C00024E0B1F5803F12D0B1F5003F28D111E0FE
:1018D000154A826025E00822C26022E01022C26020
:1018E0001FE0082202611CE01022026119E00822B8
:1018F000426016E01022426013E00422426010E0D1
:10190000042242600DE0042242600AE0002282616B
:101910000422426005E0002282610422426000E06D
:1019200000BF00BF704700000101010070B5044610
:101930000D46002660692840002871D0B5F5807FEB
:101940005CD010DC082D35D006DC012D20D0022D16
:1019500024D0042D72D127E0102D31D0202D35D088
:10196000402D6BD138E0B5F5004F60D009DCB5F5FE
:10197000007F49D0B5F5806F4CD0B5F5006F5DD1D3
:101980004FE0B5F5803F2DD0B5F5003F56D12FE0A3
:10199000A0682D4900F0D2F8064651E0E068032126
:1019A00000F0CCF806464BE0E068082100F0C6F8ED
:1019B000064645E0E068102100F0C0F806463FE02A
:1019C0002069032100F0BAF8064639E020690821B1
:1019D00000F0B4F8064633E02069102100F0AEF8BC
:1019E00006462DE06068082100F0A8F8064627E0CA
:1019F0006068102100F0A2F8064621E0A0690121EC
:101A000000F09CF806461BE0A069022100F096F861
:101A1000064615E0A069042100F090F806460FE0A4
:101A20000FE0A069702100F089F8064608E06068C0
:101A3000042100F083F8064602E0FFE7002600BF1D
:101A400000E00026304670BD0101010010B500F530
:101A5000D87303EB01131B6803F004031372137AAA
:101A600053B900F5D87303EB01131B6840F2FF7400
:101A700004EA5353136009E000F5D87303EB011334
:101A80001B686FF0604404EAD303536000F5D87319
:101A900003EB01131B6803F00203537200F5D873C4
:101AA00003EB01135B6803F00F03937200F5D87327
:101AB00003EB01135B681B0AD37400F5D87303EBC7
:101AC00001139B68D37200F5D87303EB01139B6875
:101AD0001C0A147300F5D87303EB01139B681C0CEC
:101AE000547300F5D87303EB01139B681B0E9373BB
:101AF00000F5D87303EB0113DB68D37300F5D873DB
:101B000003EB0113DB681C0A147400F5D87303EBB4
:101B10000113DB681C0C547400F5D87303EB01133C
:101B2000DB681B0E937421B9C36843F02003C360C4
:101B300003E0036943F02003036110BD0246002067
:101B400002EA01030BB1012000E00020704770475A
:101B50000549096821F01001034A1160114609681E
:101B60000143116070470000002002400146002040
:101B7000034A106800F03800084310607047000006
:101B8000002002402DE9F0410246002500260020F9
:101B900000230024002791F803C00CF00F0591F8F2
:101BA00003C00CF0100CBCF1000F03D091F802C080
:101BB0004CEA050591F800C0BCF1000F31D0146863
:101BC00000202BE04FF0010C0CFA00F3B1F800C03C
:101BD0000CEA03069E4220D183004FF00F0C0CFA52
:101BE00003F7BC4305FA03FC4CEA040491F803C074
:101BF000BCF1280F06D14FF0010C0CFA00FCC2F822
:101C000014C00AE091F803C0BCF1480F05D14FF0B1
:101C1000010C0CFA00FCC2F810C0401C0828D1D3FB
:101C20001460B1F800C0BCF1FF0F34DD546800202F
:101C30002EE000F1080C4FF0010808FA0CF3B1F89F
:101C400000C00CEA03069E4221D183004FF00F0C26
:101C50000CFA03F7BC4305FA03FC4CEA040491F8C0
:101C600003C0BCF1280F05D100F1080C08FA0CF8EC
:101C7000C2F8148091F803C0BCF1480F07D100F1FD
:101C8000080C4FF0010808FA0CF8C2F81080401C4C
:101C90000828CED35460BDE8F08100BFFEE700BF46
:101CA000FEE770472DE9FC5F04460E46E068351AF2
:101CB000606928446061D4E90501884201DDA069BA
:101CC0006061D4E905014942884201DAA069606196
:101CD000606901F047FE8246616801F05BFE814663
:101CE0002169481B01F03EFE0090A16801F052FE00
:101CF0008246284601F036FE0090216801F04AFE37
:101D00008346514601F0B0FD4946019001F0ACFD1B
:101D1000804601F00BFE074625613846BDE8FC9F72
:101D20002DE9F04788B006460C4615460027B84610
:101D3000B946BA4618208DF81F0003208DF81E0002
:101D4000434886420CD1BAF1010F09D04FF0010A85
:101D5000C020ADF81C0007A93E48FFF713FF13E0B1
:101D60003D4886420DD1B9F1010F0AD04FF001096B
:101D70004FF47060ADF81C0007A93848FFF702FF68
:101D800002E008B0BDE8F087B5F57A7F06D84727AE
:101D90003348B0FBF5F0A0F1010805E00327314816
:101DA000B0FBF5F0A0F10108B8B2ADF810000020CA
:101DB000ADF812001FFA88F0ADF814000020ADF85D
:101DC00016008DF8180004A9304600F0C3FE7020FC
:101DD000ADF800000120ADF802000420ADF80400C9
:101DE0004FF47A70ADF806000220ADF8080000202C
:101DF000ADF80A004FF48070ADF80C000020ADF88B
:101E00000E00012C04D16946304600F041FD15E07A
:101E1000022C04D16946304600F086FD0EE0032C0A
:101E200004D16946304600F0D1FD07E0042C04D10E
:101E30006946304600F01AFE00E0A2E70121304674
:101E400000F07CFB0121304600F084FB00BF98E7E6
:101E50000034014000100140002C01400008014006
:101E600040420F0080A812012DE9FF4F83B00D46BC
:101E700092461E46B6F57A7F07D84FF0470B1C48AE
:101E8000B0FBF6F0A0F1010906E04FF0030B194892
:101E9000B0FBF6F0A0F1010909FB0AF001F079FCB2
:101EA00007460022144B01F0EFFACDE9000101F0E2
:101EB00043FC0446012D04D1A1B2039800F014FEA6
:101EC00013E0022D04D1A1B2039800F00FFE0CE044
:101ED000032D04D1A1B2039800F00AFE05E0042D01
:101EE00003D1A1B2039800F005FE07B0BDE8F08F62
:101EF00040420F0080A812010088C34070470000D4
:101F000029B1064AD2690243044BDA6104E0034A6C
:101F1000D2698243014BDA61704700000010024031
:101F200029B1064A12690243044B1A6104E0034ACC
:101F300012698243014B1A61704700000010024091
:101F400029B1064A92690243044B9A6104E0034AAC
:101F500092698243014B9A61704700000010024071
:101F600029B1064AD2680243044BDA6004E0034A0E
:101F7000D2688243014BDA607047000000100240D3
:101F80000F48006840F001000D49086008464068AD
:101F90000C4908400A494860084600680A49084058
:101FA000074908600846006820F480200860084659
:101FB000406820F4FE0048604FF41F0088607047BE
:101FC000001002400000FFF8FFFFF6FE10B50146CA
:101FD0000022002300204A11012A02D1094C236863
:101FE00006E0022A02D1074C236A01E0054C636A2D
:101FF00001F01F02012494401C400CB1012000E0BC
:10200000002010BD001002400248406800F00C00A3
:10201000704700000010024001460020034A50684B
:1020200020F0F000084350607047000000100240AC
:102030001149096821F480310F4A1160114609687D
:1020400021F480211160B0F5803F03D0B0F5802FDE
:102050000ED106E00849096841F48031064A116052
:1020600007E00549096841F4A021034A116000E036
:1020700000BF00BF70470000001002400146002072
:10208000034A506820F4E060084350607047000045
:102090000010024001460020034A506820F46050BE
:1020A00040EAC100506070470010024001490866D4
:1020B000704700000000424202460020044B58686E
:1020C00020F47C1042EA01031843014B586070472A
:1020D0000010024001460020034A506820F003002F
:1020E00008435060704700000010024038B50020DF
:1020F00000900024002500BF3120FFF767FF054650
:102100000098401C00900098B0F5A06F01D0002D01
:10211000F2D03120FFF75AFF08B1012400E000247B
:10212000204638BD704710B500F002F810BD000021
:102130000CB50020019000903348006840F48030D6
:102140003149086000BF3048006800F4003000905A
:102150000198401C0190009818B90198B0F5A06F43
:10216000F1D12948006800F4003010B1012000903E
:1021700001E0002000900098012843D12348006826
:1021800040F01000214908600846006820F0030074
:1021900008600846006840F0020008601A4840687D
:1021A000194948600846406848600846406840F45D
:1021B000806048600846406820F47C10486008460B
:1021C000406840F4E81048600846006840F08070BD
:1021D000086000BF0C48006800F000700028F9D0CB
:1021E0000948406820F003000749486008464068F5
:1021F00040F00200486000BF0348406800F00C0057
:102200000828F9D10CBD0000001002400020024057
:102210007047000010B51348006840F001001149F4
:10222000086008464068104908400E494860084662
:1022300000680E4908400B4908600846006820F411
:10224000802008600846406820F4FE0048604FF493
:102250001F008860FFF767FF4FF0006004490860C7
:1022600010BD0000001002400000FFF8FFFFF6FE66
:1022700008ED00E0F0B50C46154600220021068C62
:102280004FF6FE773E400684028B018C4FF60C76AB
:1022900032407E1C06EA03162E433243104EB042F3
:1022A0000ED0104EB0420BD0B0F1804F08D00E4E81
:1022B000B04205D00D4EB04202D00D4EB04206D114
:1022C0004FF6FD76314044F00106314305E04FF60C
:1022D000F576314044F00106314302830184F0BDBC
:1022E000002C014000340140000400400008004080
:1022F000000C0040F0B50C461546002200210026D7
:10230000078C4FF6EF7C07EA0C070784028B018CE1
:102310004FF6FF7707EA041640F6FF473A404FF6BC
:10232000FF7707EA03373A434FF6FF7707EA0527B7
:102330003A43114FB8420ED0104FB8420BD0B0F113
:10234000804F08D00E4FB84205D00E4FB84202D091
:102350000D4FB84206D14FF6DF77394046F01007EF
:10236000394305E04FF65F77394044F010073943B1
:1023700002830184F0BD0000002C014000340140C4
:102380000004004000080040000C0040F0B50C467E
:102390001546002200210026078C4FF6FF6C07EA45
:1023A0000C070784828B018C4FF6FF7707EA04261F
:1023B0004FF60C773A404FF6FF7707EA03172F43A3
:1023C0003A43114FB8420ED0104FB8420BD0B0F183
:1023D000804F08D00E4FB84205D00E4FB84202D001
:1023E0000D4FB84206D14FF6FF57394046F480777B
:1023F000394305E04FF2FF57394044F480773943C1
:1024000082830184F0BD0000002C014000340140B3
:102410000004004000080040000C0040F0B50C46ED
:102420001546002200210026078C4EF6FF7C07EAA5
:102430000C070784828B018C4FF6FF7707EA04367E
:1024400040F6FF473A404FF6FF7707EA05273A4341
:102450004FF6FF7707EA03373A43114FB8420ED0E1
:10246000104FB8420BD0B0F1804F08D00E4FB84299
:1024700005D00E4FB84202D00D4FB84206D14DF6EE
:10248000FF77394046F48057394305E047F6FF5758
:10249000394044F48057394382830184F0BD000001
:1024A000002C0140003401400004004000080040BE
:1024B000000C00402DE9F0410121880700F06FF980
:1024C00038B30121880700F036F813480088A0F5DA
:1024D0009855883D41F288300F4908800F480088A0
:1024E000A0F59854883C41F288300C4908800C488B
:1024F00000680C49C8600C4800680C49C86029464F
:102500000848FFF7CFFB074621460848FFF7CAFBFC
:102510000646BDE8F0810000240800402404004085
:1025200038000020000000203C0000201C0000209B
:10253000CA4302827047CA430282704721B10288AF
:1025400042F00102028004E002884FF6FE731A4056
:102550000280704731B1B0F8442042F40042A0F844
:10256000442005E0B0F84420C2F30E02A0F8442055
:102570007047000010B504466848844208D1012124
:10258000C014FFF7EDFC0021E014FFF7E9FCC4E004
:10259000B4F1804F08D101210846FFF7C1FC0021AA
:1025A0000120FFF7BDFCB8E05D48844208D101215D
:1025B0000220FFF7B5FC00210220FFF7B1FCACE0E0
:1025C0005848844208D101210420FFF7A9FC0021CA
:1025D0000420FFF7A5FCA0E05348844208D1012164
:1025E0000820FFF79DFC00210820FFF799FC94E0EC
:1025F0004E48844208D101211020FFF791FC0021B0
:102600001020FFF78DFC88E04948844208D1012161
:102610002020FFF785FC00212020FFF781FC7CE0D3
:102620004448844208D101214014FFF799FC00215D
:102630006014FFF795FC70E03F48844209D1012106
:10264000C804FFF78DFC00214FF40020FFF788FC41
:1026500063E03A48844209D101210805FFF780FC74
:1026600000214FF48010FFF77BFC56E03448844291
:1026700009D101214805FFF773FC00214FF4001038
:10268000FFF76EFC49E02F48844208D10121402029
:10269000FFF746FC00214020FFF742FC3DE02A48BE
:1026A000844208D101218020FFF73AFC00218020DC
:1026B000FFF736FC31E02548844208D1012180151E
:1026C000FFF72EFC0021A015FFF72AFC25E020488B
:1026D000844209D101210804FFF742FC00214FF494
:1026E0008030FFF73DFC18E01A48844209D10121EF
:1026F0004804FFF735FC00214FF40030FFF730FCB1
:102700000BE01548844208D101218804FFF728FC1A
:1027100000214FF48020FFF723FC10BD002C014066
:102720000004004000080040000C00400010004081
:102730000014004000340140004C014000500140B2
:102740000054014000180040001C004000200040E0
:10275000004001400044014000480140F0B50C46F3
:1027600015461E460021002200230189028B038C9E
:102770004FF6F877394021434FF6FC473A4040F294
:1027800001173A434FF6DD773B404FF6FF7707EAF4
:1027900006172F433B43018102830384F0BD30B50C
:1027A0000246002000230024158A05EA01039589CA
:1027B00005EA010413B10CB1012000E0002030BD96
:1027C00070B505460C46244885420ED02348854204
:1027D0000BD0B5F1804F08D02148854205D0214863
:1027E000854202D02048854200D100E000BF208809
:1027F00050B92389A28861882846FFF73BFDE1880C
:10280000284600F07AF925E0208804280AD1238997
:10281000A28861882846FFF76DFDE188284600F010
:1028200075F917E0208808280AD12389A2886188D1
:102830002846FFF7ABFDE188284600F074F909E06F
:102840002389A28861882846FFF7E8FDE1882846A9
:1028500000F072F970BD0000002C0140003401400E
:102860000004004000080040000C004000210180EE
:102870004180012181800021C180018170471AB10E
:1028800083890B43838102E083898B438381704773
:1028900070B5002400220023058C4FF6FE763540EB
:1028A0000584028C8388048B4FF68F752C40B51EEF
:1028B0002C400D882C43751E2A400D892A434D88D3
:1028C0002A43144DA8420BD0134DA84208D0134DF3
:1028D000A84205D0124DA84202D0124DA84213D1F1
:1028E0004FF6F7752A404D892A434FF6FB752A406B
:1028F0008D882A434FF6FF652B404FF6FF552B403E
:102900008D892B43CD892B4383800483CD88858695
:10291000028470BD002C01400034014000400140A1
:10292000004401400048014070B50024002200230B
:10293000058C4FF6EF7635400584028C8388048B36
:1029400048F6FF752C404FF6FF452C400D884FF69A
:10295000FF7606EA05252C434FF6DF752A400D89E0
:1029600006EA05152A434D8806EA05152A43154D42
:10297000A84202D0144DA8421DD14FF67F752A40BF
:102980004D894FF6FF7606EA05152A434FF6BF75C7
:102990002A408D8806EA05152A434FF6FF352B405D
:1029A0004FF2FF752B408D8906EA85052B43CD89B3
:1029B00006EA85052B4383800483CD88058702843E
:1029C00070BD0000002C01400034014070B50024AF
:1029D00000220023058C4FF6FF6635400584028CEB
:1029E0008388848B4FF68F752C404FF6FC752C40F6
:1029F0000D882C434FF6FF552A400D894FF6FF7680
:102A000006EA05252A434D8806EA05252A43154D81
:102A1000A84202D0144DA8421DD14FF2FF752A40A2
:102A20004D894FF6FF7606EA05252A434FF6FF3516
:102A30002A408D8806EA05252A434EF6FF752B406D
:102A40004DF6FF752B408D8906EA05152B43CD8980
:102A500006EA05152B4383808483CD88858702840D
:102A600070BD0000002C01400034014070B5002210
:102A700000230024058C4EF6FF7635400584038C38
:102A80008488828B48F6FF752A404FF6FF452A401E
:102A90000D884FF6FF7606EA05252A434DF6FF75A9
:102AA0002B400D8906EA05352B434D8806EA05358E
:102AB0002B430B4DA84202D00A4DA84208D14BF639
:102AC000FF752C408D894FF6FF7606EA85152C435D
:102AD00084808283CD88A0F84050038470BD0000BC
:102AE000002C014000340140818670470187704707
:102AF00081877047A0F840107047028B4FF6F37340
:102B00001A400283028B0A4302837047028B4FF202
:102B1000FF331A400283028B4FF6FF7303EA01234F
:102B20001A4302837047828B4FF6F3731A408283F5
:102B3000828B0A4382837047828B4FF2FF331A40A5
:102B40008283828B4FF6FF7303EA01231A43828349
:102B500070470000002202881D4B98420ED01D4B8A
:102B600098420BD0B0F1804F08D01B4B984205D053
:102B70001A4B984202D01A4B984204D14FF68F73E9
:102B80001A404B881A43174B984207D0164B98426D
:102B900004D04FF6FF431A40CB881A4302808B883B
:102BA00083850B8803850A4B98420BD0094B9842CA
:102BB00008D00E4B984205D00D4B984202D00D4BD9
:102BC000984201D10B7A038601238382704700006B
:102BD000002C014000340140000400400008004087
:102BE000000C004000100040001400400040014074
:102BF00000440140004801404FF6FF7181800021F0
:102C00000180C1804180017270470000F8B540F238
:102C100025514C4800F0E5F8002862D040F22551DB
:102C2000484800F0C2F8474800F005F9C6B20A2E3D
:102C300058D14548006800B9F8BD444801680068AB
:102C4000401C424A106042484654424A694600F0DD
:102C50009DF90446002C22DAE01C48B900203A49CC
:102C600008603A49086020213948FDF73FFBE3E757
:102C7000A01C20B938A1334800F095FB05E0601C8A
:102C800018B93BA12F4800F08EFB00202E490860A8
:102C90002E49086021212E48FDF728FBCCE72D495D
:102CA000009800F015F90446002C11DAA01C28B990
:102CB000284833A10268234800F075FB0020224910
:102CC00008602249086021212148FDF70FFBB3E786
:102CD00000201D4908601D49086021211C48FDF79E
:102CE00005FB2CE018480068202805D10020164973
:102CF0000860164908609FE700250BE0134800684C
:102D0000401B401E1249085C10490968491B104AC3
:102D100050546D1C0D4800680B490968401AA842C0
:102D2000ECD80B4808490968465407480068401C1D
:102D30000549086005480068401C0449086000BF58
:102D40007AE7000000380140700000207400002085
:102D50008C080020B00800200A7468652070617239
:102D6000616D20697320746F6F206C6F6E67000057
:102D70000A746F6F206D616E7920706172616D00F1
:102D80000D0A6E6F742066696E6420636F6D6D6DE1
:102D9000616E643A25730A0001F40072B2F5007F97
:102DA00000D100BFCA430280704710B50022002343
:102DB00040F66A14A14200D100BF0A1201249440D7
:102DC000A3B2DC43048010BD02460020B1F5007FB1
:102DD00000D100BF13880B400BB1012000E00020A0
:102DE000704770B50246002400230025002040F6FD
:102DF0006A16B14200D100BFC1F3421501F01F03B2
:102E0000012606FA03F3012D02D19689334006E02C
:102E1000022D02D1168A334001E0968A33400C120B
:102E2000012606FA04F41688344013B10CB10120CF
:102E300000E0002070BD01468888C0F3080070479C
:102E4000C1F308028280704710B502210E48FEF7D8
:102E50006DFDB8B10D4A00210B48FEF7F7FD0B4898
:102E600000680B4901EBC000406838B107480068B2
:102E70000A4602EBC0004168044888470221024824
:102E8000FEF700FD10BD0000006400407800002047
:102E90008C00002000BFFEE7490050EAC12018BFA7
:102EA00004204A0D18BF40F0010040F2FF72B2EB5F
:102EB000515F08BF40F00200012808BF052070479D
:102EC00030380A2801D201207047002070470000E6
:102ED0002DE9F04105460E460024012715B9601E74
:102EE000BDE8F081002414E004EB44020B4B03EB3B
:102EF00002103168FDF722FA50B904EB440007498B
:102F000001EB00103146C26A284690470020E7E7EF
:102F1000641CBC42E8D36FF00100E1E740000020F0
:102F20002DE9F04105460F460126012D05DD0EA1D4
:102F30000F4800F038FABDE8F08100240FE004EB00
:102F400044000C4901EB001000F1090304EB4400BC
:102F500001EB001208A1064800F025FA641CB442F7
:102F6000EDD300BFE7E700006572726F720A0000E0
:102F70000038014040000020636D643A2573202032
:102F80002075736167653A25730A00002DE9F041E9
:102F900003460F46144600250022002128466D1CDA
:102FA0001E5C25E0202E14D11AB928466D1C1E5C2B
:102FB0001EE0032902D1081FBDE8F081002054F86B
:102FC00021C00CF80200491C002228466D1C1E5C22
:102FD0000EE0092A02D16FF00100EDE754F82180DC
:102FE0001046521C08F8006028466D1C1E5C00BF8D
:102FF0000D2ED7D119B912B96FF00200DCE74FF0EE
:1030000000080846491C54F8200000F80280396086
:103010000020D1E710B588B0044604208DF81F00C9
:1030200003208DF81E003A48844208D14FF44070C6
:10303000ADF81C0007A93748FEF7A4FD30E036487C
:10304000844207D1C020ADF81C0007A93148FEF723
:1030500099FD25E03148844207D1C020ADF81C001D
:1030600007A92F48FEF78EFD1AE02E48844202D0B1
:10307000B4F1804F07D10320ADF81C0007A9254803
:10308000FEF780FD0CE02848844207D1C020ADF84F
:103090001C0007A92548FEF775FD01E008B010BD2A
:1030A0002046FFF767FA04A8FFF7A6FD0020ADF859
:1030B00010004CF24F30ADF814000020ADF81600AF
:1030C000ADF8120004A92046FFF744FD00231A467C
:1030D00003212046FFF742FB01A8FFF7C7FB0620AC
:1030E000ADF80C0001A92046FFF76AFB012120463C
:1030F000FFF71EFA012211462046FFF7C0FB41F2FE
:103100007070A08401212046FFF718FA00BFC5E7C0
:10311000002C01400008014000040040000800406D
:10312000000C0140000C0040003401400010014040
:1031300000F04EF800F012F84FF47A71002000F021
:103140008DF84FF47A71012000F088F802490220CE
:1031500000F084F800BFFEE718FCFFFF10B543F64F
:10316000982201211548FEF7DBFD43F69822022143
:103170001248FEF7D5FD43F6982203210F48FEF7CB
:10318000CFFD43F6982204210C48FEF7C9FD43F613
:10319000982201210A48FEF7C3FD43F69822022136
:1031A0000748FEF7BDFD0748FFF734FF0648FFF765
:1031B00031FF0648FFF72EFF10BD0000002C014034
:1031C000003401400004004000080040000C0040B2
:1031D00010B5FEF7D5FE00F0B1F801218803FEF727
:1031E000AFFE01214804FEF78BFE01218804FEF7A3
:1031F00087FE0121C804FEF783FE01210803FEF7C4
:103200009FFE01210420FEF79BFE01210820FEF70E
:1032100097FE01211020FEF793FE01212020FEF7EA
:103220008FFE0121C802FEF78BFE01210846FEF742
:1032300067FE01210220FEF763FE01210420FEF754
:103240005FFE01210820FEF75BFE01214803FEF727
:1032500077FE01214806FEF753FE10BD70B5054606
:103260000C4605BB002C0EDB43F6982300220121FF
:103270003048FEF7F9FD43F69823224602212D48F7
:10328000FEF7F2FD54E0644243F698232246012102
:103290002848FEF7E9FD43F698230022022125483D
:1032A000FEF7E2FD44E0012D20D1002C0EDB43F6B9
:1032B0009823002203211F48FEF7D6FD43F69823EA
:1032C000224604211B48FEF7CFFD31E0644243F65D
:1032D0009823224603211748FEF7C6FD43F698239C
:1032E000002204211348FEF7BFFD21E0022D1FD16B
:1032F000002C0EDB43F69823002201210E48FEF736
:10330000B3FD43F69823224602210B48FEF7ACFD9D
:103310000EE0644243F69823224601210648FEF758
:10332000A3FD43F69823002202210348FEF79CFDEB
:1033300070BD0000002C01400034014010B5FEF7C4
:103340001FFE4FF48030FEF773FEFEF7CFFE0446FB
:10335000012C27D10220FEF709FC1020FEF7F8FB14
:103360000020FEF7A3FE0020FEF756FE0020FEF729
:1033700091FEA002FEF782FE4FF4E0112004FEF75A
:103380009BFE0120FEF792FE00BF3920FEF71EFED5
:103390000028FAD00220FEF79DFE00BFFEF734FEA3
:1033A0000828FBD110BD0FB430B5A3B005460024EA
:1033B00028A80190812102A8019B279AFCF77CFF95
:1033C00080212846FFF7E8FC26E002A8005D0A28D5
:1033D00013D10D212846FFF733FD00BF8021284679
:1033E000FFF7F2FC0028F9D02046621CD4B202AAF2
:1033F000115C2846FFF724FD07E02046621CD4B28A
:1034000002AA115C2846FFF71BFD00BF8021284659
:10341000FFF7DAFC0028F9D0802C03DA02A8005D5F
:103420000028D2D10020019023B030BC5DF814FBFD
:1034300010B500290AD00878002807D0054878443C
:10344000FCF77CFF002801D0002010BD0248784422
:1034500010BD0000D6080000CE08000010B50029FD
:103460000AD00878002807D005487844FCF766FFA2
:10347000002801D0002010BD0248784410BD000093
:10348000C6080000BE0800002DE9C04130B4DFF8D6
:10349000A0C23CEA111418BF3CEA131400F0EC80FF
:1034A00081EA03051CEA111444EAD57418BF1CEA2A
:1034B000131500F0C780A4EB05044FF0004545EA62
:1034C000C12145EAC32341EA505143EA525304F172
:1034D0007F74994204F500344FEAC0204FEAC222BB
:1034E00008BF904200F09C804FEA13650FF240162F
:1034F000765D4FEA134506FB05F7C7F1807706FBBB
:1035000007F74FEAD737A7FB03687642C8F580383C
:10351000A7FB06CE38BFA8F1010807FB08E64FF06D
:10352000000EA6FB028CE6FB03CEDCF1000CCEF114
:10353000004E38BFAEF1010EA6FB0C584FF000074D
:103540004FF00005E6FB0E87A1FB08C6A0FB07CEE7
:1035500016EB0E0645F10005E1FB076515F1E04E9F
:103560007EBFA4F580345FEA46066D4116F1800700
:1035700045F100054FEA17274FEA066647EA056757
:10358000A6F1DE46B6F1805F4FEA15251FD9384611
:1035900024F0010C05EBC471BCF1FE6F01EB0C11C2
:1035A00002D8F0BCBDE8008124425CBF01F5801E5A
:1035B0009EEAC47F02D4F0BCBDE80081244238D426
:1035C000F0BCA1F1C041BDE8004100F047B94FEAAD
:1035D000D22242EA43524FEAD323A7FB02864FEAA4
:1035E000D02040EA415007FB03661EEA0E0F4FEA67
:1035F000D12105FB026658BFA6EB0056B6EB00567C
:103600004FEA520E4EEAC37E18EB0E0E56EB530EE7
:10361000BDD518EB02085E417F1C55F10005B6E7E9
:103620004FF480154FF000074FF000064FF00008F0
:10363000ADE7F0BC4FF0000001F1C04101F00041E6
:10364000BDE8008111EA0C1F0CEA131500D00CE054
:1036500013EA0C1F00F025804FF00000F0BC81EA57
:10366000030101F00041BDE80081F0BCBDE800416C
:1036700081EA030100F0F2B8F0BCBDE8004170B58A
:1036800000F09EF8097EFC3E00F007B881EA0301D5
:103690004FF0000001F00041704781EA030100F0A3
:1036A000DDB8F0BCBDE800414FF000002149704793
:1036B000FFFDFBF9F7F5F4F2F0EEEDEBE9E8E6E4F7
:1036C000E3E1E0DEDDDBDAD8D7D5D4D3D1D0CFCD7E
:1036D000CCCBCAC8C7C6C5C4C2C1C0BFBEBDBCBBB7
:1036E000BAB9B8B7B6B5B4B3B2B1B0AFAEADACABB2
:1036F000AAA9A8A8A7A6A5A4A3A3A2A1A09F9F9E8C
:103700009D9C9C9B9A99999897979695959493933D
:10371000929191908F8F8E8E8D8C8C8B8B8A8989D4
:103720008888878786858584848383828281818057
:103730000000FF070000F87F4FEA1153A3F58063F4
:10374000D3F11E03A8BFD3F1200C08DB4FF00042D9
:1037500042EAC12252EA505232FA03F0704709425B
:103760000BD4102BC4BF0020704703F5787CBCF14C
:10377000FF3F05D04FF0FF3070474FF0000070471B
:1037800070B500F01DF800BF4992248000207047FA
:10379000F0E710F0004248BF4042B0FA80F310FA60
:1037A00003F10AD0C3F11D0303F580634FEA4150D2
:1037B00002EB035202EBD12170474FF0000070473B
:1037C0000EF1020E2EF0030E5EF8046B364205D4A5
:1037D000012A43EB030515F5001F12D8012841EB20
:1037E000010C1CF5001F0CD80ED14FEAD17C15F549
:1037F000001F0CEB4C0C0CF1020C08BF4CEBD37C03
:1038000004E04FF0080C01E04FEAD37C0CEB4C05D0
:1038100026FA05F606F00706B6F1040C06D20EEB02
:10382000860CBDE870404CF0010C6047DFE80CF0FE
:10383000090B02024FF000414FF00000A1F50021FA
:1038400070BD19461046012851EB010418BFD4F58C
:10385000001484BF002001F0004170BD0808A0F5ED
:1038600000114FEA3101704790EA010F48BF81F023
:10387000004100F16281421A3CBF801A89184FEA68
:10388000D0524FF07F4C1CEA410FA2EBD15318BF2E
:103890009CEA026F00F03B804FF0004C4CEA0020A5
:1038A0004CEA012121FA03FC10EB0C0C1ED202F1B0
:1038B000FF325FEA1C2040EBC25038BF70471CF05B
:1038C0007F0F4FEA400C18BFBCF17F4F38BF7047E5
:1038D000C3F12003994008BF20F00100BCF17F4FE5
:1038E00038BF7047A0F1C04000F01BB94FEA3C0060
:1038F000000A40EBC25028BF1CF0FF0F4FEA400CFB
:10390000E6D018BFBCF17F4F38BF7047EAE79CEAAA
:10391000026F05D010EA5C0F08BF00F0004070474E
:1039200010B500F0B8F800BF64FBBE3E41000B0EBE
:10393000D3F19E0208D950F400034FEA032323FA7F
:1039400002F048BF4042704710B500F0A4F800BF35
:1039500049922480002070476FF0004282EA2000E4
:103960007047000010F0004148BF4042B0FA80F3B9
:1039700010FA03F2C3F19D030BD051EAC35101EBDE
:103980001220530638BF704700F1010008BF20F035
:10399000010070474FF47F0C1CEAD0121EBF1CEAD6
:1039A000D11392EA0C0F93EA0C0F00F0478090EAD3
:1039B000010F48BF42F480724FF0004C4CEA0020E7
:1039C0004CEA012102EB0302A0FB0113A2F5000265
:1039D000002918BF43F001035B0028BF4FEA3303FF
:1039E00042EB22425FEA132C4CEBC2502EBFBCEBE1
:1039F000436FB2F57C0F70474FEA036CBCF1004F88
:103A000008BF20F00100B2F57C0F38BF70470BD51E
:103A100082F0FF0212F5803FC8BF704700F1C0403E
:103A2000D8BF00F00040704700F5000C5FEA4C0C76
:103A300048BF7047B0F1C04000F073B890EA010F82
:103A40000CEAD11348BF42F48072624538BF634527
:103A500004D280EA010000F00040704710B500F089
:103A60001AF800BF8900013E00F007B800F009B85D
:103A70005FEA410C5FEA1C6C08D080EA010000F0AC
:103A800050B85FEA400C5FEA1C6CF6D14FF0004082
:103A9000A0F5800070470EF1020E2EF0030E5EF8C6
:103AA000044B244204D44FEA4102B2F17F4F11D8B3
:103AB0004FEA4003B3F17F4F0CD80ED14FEAD07CD0
:103AC000B2F17F4F0CEB4C0C0CF1020C08BF4CEB2D
:103AD000D17C04E04FF0080C01E04FEAD17C0CEB04
:103AE0004C0324FA03F404F00704B4F1040C06D2E6
:103AF0000EEB840CBDE810404CF0010C6047DFE891
:103B00000CF0070802024FF00040A0F5800010BD45
:103B10000846420018BFD2F1807288BF00F0004012
:103B200010BDFF2141EAD050C005704790EA010F57
:103B300048BF81F000413FF59EAE421A04D882F0A2
:103B40000042A0EB020011444FEAD0524FF07F4CEC
:103B50001CEA410FA2EBD15318BF9CEA026F4AD076
:103B60004FF0004C4CEA00204CEA012121FA03FC02
:103B7000B0EB0C0C0FD412F0FE0F36D05FEA4C0005
:103B80001DD5001240EBC25038BF70471CF03F0FEC
:103B900018BF70470BE0A2F101025FEA1C2040EB66
:103BA000C25038BF70471CF07F0F18BF7047C3F179
:103BB0002003994014BF401E20F001007047800888
:103BC0004FEA122308BF7047B0FA80FCA2EB0C0248
:103BD000CCF1280C60FA0CF093EA122F04BF00EB32
:103BE000C25070474FEAC3707047130A5FEADC1097
:103BF00008BF7047F6E79CEA026F04D010EA5C0F3A
:103C000008BF0020704710B5FFF745FF40DFF63EC4
:103C100081F000407047FDF708B800000000000088
:103C20000000000030313233343536373839414204
:103C3000434445464030580030313233343536370E
:103C400038396162636465664030780004000008BA
:103C50000000000000000002000100001000000051
:103C600002400000000000A000000000054000002D
:103C7000000000C8000000000C4000000000409C54
:103C800000000000194000000020BCBE0000000041
:103C900034400000BFC91B8E00000004B540000086
:103CA000504BCFD06607E2CF010000006C4100000E
:103CB0003E8251AADFEEA73401000000D942000085
:103CC000DCB5A0E23A301F97FFFFFFFFB4450000CC
:103CD000FD25A0C8E9A3C14FFFFFFFFFFF3F000084
:103CE0000000008000000000FF3F00000000008096
:103CF00000000000403E00080000002078000000A6
:103D00006C010008B83E000878000020A8180000E8
:103D1000880100081C00000043000000F8FFFFFFBE
:103D20000C0000000E0000000F0000002E0000003C
:103D30001001000043000000F8FFFFFF004040407A
:103D4000404040404040414141414140404040406E
:103D5000404040404040404040404040400502021A
:103D600002020202020202020202020202202020D9
:103D70002020202020202002020202020202909035
:103D80009090909010101010101010101010101033
:103D90001010101010101010020202020202888887
:103DA0008888888808080808080808080808080893
:103DB000080808080808080802020202400000007B
:103DC00000000000000000000000000000000000F3
:103DD00000000000000000000000000000000000E3
:103DE00000000000000000000000000000000000D3
:103DF00000000000000000000000000000000000C3
:103E000000000000000000000000000000000000B2
:103E100000000000000000000000000000000000A2
:103E20000000000000000000000000000000000092
:103E30000000000000000000000000000000000082
:103E4000CDCCCC3D000000000000000000000000D0
:103E5000000000000000000000000000CDCCCC3DC0
:103E60000000000000000000000000000000000052
:103E70000000000000000000000000000000000042
:103E800068656C7000000000005072696E742061FB
:103E90006C6C20636F6D6D616E6420616E64207563
:103EA000736167650000000000000000212F00081A
:083EB00000000000000000000A
:0400000508000131BD
:00000001FF
